:020000040800F2
:10000000F806002045010008191E0008511D0008CF
:10001000151E0008CD0D00087D2E00080000000010
:10002000000000000000000000000000992000080F
:100030000516000800000000291F0008E52100083F
:100040005F0100085F0100085F0100085F01000810
:100050005F0100085F0100081D1600085F0100082D
:100060005F0100085F0100085F0100085F010008F0
:100070005F0100085F0100085F0100085F010008E0
:100080005F0100085F0100085F0100085F010008D0
:10009000352E00085F0100085F0100082D180008D8
:1000A0005F0100085F0100085F0100085F010008B0
:1000B0005F01000825250008CD2500085F01000824
:1000C0005F0100085F0100085F0100085F01000890
:1000D0005F010008F12A00085F0100085F010008C5
:1000E0005F0100085F0100085F0100085F01000870
:1000F0005F0100085F0100085F0100085F01000860
:100100005F0100085F0100085F0100085F0100084F
:100110005F0100085F0100085F0100085F0100083F
:100120005F0100085F0100085F0100085F0100082F
:10013000DFF80CD000F090FB004800473131000898
:10014000F80600200648804706480047FEE7FEE71D
:10015000FEE7FEE7FEE7FEE7FEE7FEE7FEE7FEE777
:10016000C524000831010008D2B201E000F8012BDB
:10017000491EFBD270470022F6E710B513460A4627
:1001800004461946FFF7F0FF204610BD80EA010241
:1001900010B502F00043400022D04A001FD0010EEB
:1001A00001EB1261C0F35600C2F3560240F40000A6
:1001B00042F40002A0FB022000047F39140400D0A6
:1001C000401C50EA124001D44000491EC2B20C0645
:1001D00004EBD010401C4008802A02D003E000202D
:1001E00010BD20F00100002900DA0020184310BDE6
:1001F00030B480EA010202F0004530F0004221F004
:10020000004013D090B1C30DD40DC2F31601C0F35A
:100210001600E41A41F4000140F400027D349142DA
:1002200001D3641C00E04900002C02DA30BC00203D
:1002300070474FF400000023914201D3891A034311
:1002400040084FEA4101F7D151B1914202D14FF03C
:10025000004105E002D24FF0010101E06FF0010121
:1002600003EBC450284430BC00F061BA2DE9FE4FC6
:10027000804681EA0300C00F0C46009021F0004147
:1002800023F00045B8EB0200A94105D240462146C3
:1002900090461C460B46024623F00040104347D0D0
:1002A000270DC7F30A00C3F30A510290401A0190C8
:1002B00040286BDAC3F3130040F4801B0098924689
:1002C00020B10023D2EB030A63EB0B0B01985946D4
:1002D000C0F14002504600F0F9F906460D4650467E
:1002E0005946019A00F011FA10EB08006141002410
:1002F00087EA115284EAE7731A4340D0009A62B346
:10030000019A012A4FEA075215DC001B61EB02013A
:100310004FF0004202EA0752CDE90042001C41F5CD
:10032000801132462B4600F048FA03B0BDE8F08F4A
:1003300040462146F9E7001B61EB0201001C41F534
:10034000801300185B412018A2F5001747EB03014A
:1003500040EAD570B6196D4111E06D084FEA3606D6
:1003600045EAC0754FEA0752001B61EB0201001C11
:1003700041F5801149084FEA3000001951413246D9
:100380002B4603B0BDE8F04F00F008BA00980122F8
:1003900040000023D0EB020263EBE073009821469B
:1003A0004FEAE074B8EB000061EB0401E9E783F089
:1003B00000435BE781F0004158E72DE9FE4F81EAF9
:1003C000030404F0004421F0004100944FF0000BBE
:1003D00023F0004350EA01045ED052EA03045BD0EC
:1003E000C3F30A54C1F30A552C44A4F2F334019424
:1003F000A0FB0254C1F3130141F48011C3F31303B2
:1004000043F4801301FB024400FB034E840A970A65
:1004100044EA815447EA8357A4FB076802958D0A92
:1004200005FB07854FEA932C04FB0C542705029D1E
:100430004FEA065847EA1637B5EB08056EEB070C8E
:10044000870E920E47EA811742EA8312A7FB020148
:10045000B6EB0B0164EB00042B0D43EA0C335E1882
:1004600044EB1C50DA465146E7FB0201C5F3130486
:100470004FEA0B3343EA14534FEA0432019C43EA38
:100480000603A4F10C040294009CCDE900B400F032
:1004900094F903B0BDE8F08F00200146F9E72DE99B
:1004A000F04D81EA030404F0004B21F000451446AE
:1004B0004FF0000A23F0004150EA050220D054EA30
:1004C00001021DD0C5F30A570246C5F31303C1F359
:1004D0001300C1F30A5640F4801543F48013A7EBD0
:1004E0000608101BD64608F2FD3873EB050002D350
:1004F00008F1010801E092185B41B8F1000F03DA3E
:1005000000200146BDE8F08D00204FF48011064622
:1005100084460EE0171B73EB050705D3121B63EB34
:10052000050306434CEA010C49084FEA30009218D3
:100530005B4150EA0107EDD152EA030012D082EA92
:10054000040083EA0501084305D0101BAB4106D225
:100550000122002306E000224FF0004302E06FF08A
:10056000010253101AEB06004CEB085110EB0A0085
:1005700041EB0B01BDE8F04D00F010B996230022CD
:10058000114600F0DDB80EB5C10F80EAE0700844F6
:10059000CA07002140F233438DE80E000A460B469D
:1005A00000F00BF903B000BD0EB540F233410291EB
:1005B0000021CDE900110A460B4600F0FEF803B019
:1005C00000BD20F00040C10DC0F3160040F4000053
:1005D0007F2901DA00207047962903DCC1F19601DA
:1005E000C840704796398840704770B5C1F30A52C9
:1005F00001F000450024C1F3130140F2FF3341F440
:1006000080119A4201DA002070BD40F233439A42D1
:10061000A2F2334203DC524200F067F800E090405F
:100620002C43F1D0404270BD00F0004230F0004059
:100630000AD0C10D01F56071C0F3160042EA015104
:10064000C208400711437047002001467047000070
:1006500030B5041E71F1000404DB4FF00044404249
:1006600064EB0101141E73F1000405DB1C464FF01E
:100670000043524263EB04038B4208BF824230BD09
:1006800001F0004330B421F0004150EA010206D0ED
:100690000A0DA2F56072C1F31301002A02DC30BC1E
:1006A00000207047440F44EAC104C100E01830BC88
:1006B00000EBC25000F03BB8002801DBC0F1004065
:1006C000002901DBC1F1004188427047202A04DB88
:1006D000203A00FA02F1002070479140C2F1200355
:1006E00020FA03F3194390407047202A04DB203A94
:1006F00021FA02F00021704721FA02F3D040C2F142
:1007000020029140084319467047202A06DBCB1788
:10071000203A41FA02F043EAE07306E041FA02F3BC
:10072000D040C2F120029140084319467047002989
:10073000A8BF7047401C490008BF20F00100704767
:1007400010B4B0FA80FC00FA0CF050EA010404BFC7
:1007500010BC704749B1CCF1200421FA04F411FA1D
:100760000CF118BF012121430843A3EB0C01CB1D61
:100770004FEA00614FEA102042BF002010BC7047D2
:1007800000EBC35010440029A4BF10BC7047401CAC
:10079000490008BF20F0010010BC704710B5141EBE
:1007A00073F1000408DA401C41F1000192185B412A
:1007B0001A4301D120F0010010BD2DE9F04D924601
:1007C0009B4611B1B1FA81F202E0B0FA80F2203218
:1007D0009046FFF77BFF04460F4640EA0A0041EAD5
:1007E0000B0153465A46084313D0114653EA010001
:1007F00019D0C8F140025046FFF777FF05460E4674
:10080000504659464246FFF761FF084305D0012094
:1008100004E020463946BDE8F08D0020054346EA55
:10082000E0762C4337430A986305E40AA0EB0800FE
:100830000022FD0A44EA47540A3002D5002001464E
:10084000E9E7010510196941DDE908450019694129
:10085000BDE8F04DA2E70000064C074D06E0E06859
:1008600040F0010394E8070098471034AC42F6D3F7
:10087000FFF762FC4C3400086C34000870B58C182B
:1008800010F8015B15F0070301D110F8013B2A11A4
:1008900006D110F8012B03E010F8016B01F8016B91
:1008A0005B1EF9D12B0705D40023521E0DD401F88D
:1008B000013BFAE710F8013BCB1A921C03E013F856
:1008C000015B01F8015B521EF9D5A142D8D300208B
:1008D00070BD21B1826842F00102826003E082684B
:1008E00022F001028260704721B1826842F4807276
:1008F000826003E0826822F4807282607047014661
:1009000000208A6802F004020AB1012000E0002001
:100910007047014600208A6802F008020AB10120EF
:1009200000E000207047000030B5024600200023A0
:1009300050680F4C20400D790C6844EA0524204390
:10094000506090680B4C2040D1E902542C434D7903
:1009500044EA450420439060D06A20F470000C7C87
:10096000641EE4B2234340EA0350D06230BD00006D
:10097000FFFEF0FFFDF7F1FFF0B504460D46002045
:100980000021092D11DDE068A5F10A0606EB4607F6
:10099000072606FA07F18843A5F10A0606EB460684
:1009A00003FA06F10843E0600CE0206905EB450717
:1009B000072606FA07F1884305EB450603FA06F118
:1009C00008432061072A0FDA606B561E06EB860784
:1009D0001F2606FA07F18843561E06EB860605FA1F
:1009E00006F10843606322E00D2A0FDA206BD61F60
:1009F00006EB86071F2606FA07F18843D61F06EB8B
:100A0000860605FA06F10843206310E0E06AA2F1C9
:100A10000D0606EB86071F2606FA07F18843A2F1AA
:100A20000D0606EB860605FA06F10843E062F0BD06
:100A3000816841F008018160704721B1826842F409
:100A4000A002826003E0826822F4A0028260704704
:100A5000816841F0040181607047000008B5012100
:100A6000042001F09FFA0120ADF8000000208DF86D
:100A700003006946014801F0D3F808BD00080140B1
:100A800010B5FFF7EBFF00F001F810BD00B591B015
:100A90000121084601F056FA0121480201F082FACC
:100AA000334800F0EBFC33480690334807900020B1
:100AB00008900120099000200A9080200B904000AF
:100AC0000C9080000D9020200E9000020F900020CE
:100AD000109006A9264800F077FD0121244800F077
:100AE000C1FC0020019001208DF808008DF809005C
:100AF0004FF4602003900020049001208DF8140032
:100B000001A91C484C38FFF70FFF4FF4404001F09B
:100B10000DFA07230122002116484C38FFF72CFF5D
:100B2000012114484C38FFF7DFFE012111484C38F1
:100B3000FFF7CFFE0F484C38FFF77AFF00BF0D4894
:100B40004C38FFF7E6FE0028F9D10A484C38FFF789
:100B50007FFF00BF07484C38FFF7D1FE0028F9D1CE
:100B6000012104484C38FFF768FF11B000BD0000B8
:100B7000080002404C2401402002002008B5012159
:100B8000042001F00FFA4FF48070ADF80000182037
:100B90008DF8030003208DF8020069461C4801F01F
:100BA0003FF80121042001F0FDF94FF40070ADF889
:100BB000000018208DF8030003208DF8020069461C
:100BC000134801F02DF80121042001F0EBF94FF456
:100BD0008060ADF8000018208DF8030003208DF828
:100BE000020069460A4801F01BF80021082001F0C4
:100BF000D9F94FF40050ADF8000018208DF803002B
:100C000003208DF802006946024801F009F808BD8A
:100C100000080140000C014010B5FFF7AFFF00F0E5
:100C200001F810BD00B58BB00121C80201F0BAF97E
:100C300040F20770ADF824000120ADF8200000203C
:100C4000ADF82600ADF822008DF8280008A930483C
:100C500001F0B0FE6020ADF810000120ADF81200E8
:100C60000420ADF814003220ADF816000020ADF8D5
:100C70001800ADF81A004FF48070ADF81C00002089
:100C8000ADF81E003220ADF8160004A9204801F08E
:100C900059FD08211E4801F0A1FD3220ADF81600D3
:100CA00004A91B4801F0A4FD0821194801F0F2FD38
:100CB0003220ADF8160004A9154801F0F9FD08210D
:100CC000134801F045FE4FF40060ADF800004010FD
:100CD000ADF802008010ADF804000B20ADF806005E
:100CE0000020ADF808004FF40050ADF80A004000B5
:100CF000ADF80C006946064801F0AEFC012104483D
:100D000001F0CCFC0121024801F0D4FC0BB000BD85
:100D1000002C01402DE9F04F89B0044623480068BB
:100D2000A0EB04092149486AFFF72DFC05461F483E
:100D30008769C3693A462846FFF73FFBCDE90401BE
:100D40001A49086AFFF71FFC0746184805694369F6
:100D50002A463846FFF731FB82468B464846FFF766
:100D600012FC074611488568C3682A463846FFF7D3
:100D700024FB52465B46CDE90001FFF718FBCDE9A5
:100D80000201DDE90423FFF771FACDE90601FFF75F
:100D90002CFC08900548006A044948620846C0F8DF
:100DA0002090089809B0BDE8F08F0000B80200203C
:100DB00010B5472142F2107001F0D8FB10BD10B5FC
:100DC000472140F6B83001F017FC10BD00BFFEE728
:100DD00010B500F0D7F800F0B9F900F08DF900F087
:100DE000A1F810BD10B504460B48844209D1012179
:100DF000480601F0C7F800214FF0007001F0C2F87A
:100E000008E00121880601F0BDF800214FF0806064
:100E100001F0B8F810BD00000064004010B50021DA
:100E2000837A012202FA03F13D4A126842F001027C
:100E30003B4B1A603A4A1C3212688A43384B1C33C7
:100E40001A60027BCAB9364A0C3212688A43344BA4
:100E50000C331A604288C38842EA0343304A403266
:100E6000847A42F834300288838842EA03432C4A69
:100E70004032847A02EBC4025360027B012A19D10A
:100E8000274A0C3212680A43254B0C331A604288F9
:100E9000038842EA0343224A4032847A42F83430DB
:100EA000C288838842EA03431D4A4032847A02EBB7
:100EB000C4025360C27A3AB9194A121D12688A43B1
:100EC000174B1B1D1A6006E0154A121D12680A43D3
:100ED000134B1B1D1A60028932B9114A1432126871
:100EE0008A430F4B14331A600289012A06D10C4A37
:100EF000143212680A430A4B14331A60427B012AE7
:100F000006D1074A1C3212680A43054B1C331A608B
:100F1000034A126822F00102014B1A6010BD000062
:100F2000006600401FB500208DF80A008DF80B0008
:100F300001208DF80C0011480068C0F34F30ADF867
:100F400000000E480088042101EBC00080B2ADF81B
:100F500002004FF6FF70ADF80400ADF80600002067
:100F6000ADF8080001208DF80D006846FFF756FF28
:100F700001220221024800F02BF81FBD18000020BA
:100F80000064004008B50121042001F00BF80121A4
:100F9000480600F0E7FF4FF48050ADF80000032052
:100FA0008DF8020018208DF803006946074800F00C
:100FB00037FE4FF40060ADF8000048208DF80300C4
:100FC0006946024800F02CFE08BD00000008014000
:100FD0001AB143690B43436102E043698B434361A8
:100FE000704730B5024600200023146824F0020444
:100FF0001460146844F00104146000E05B1C546841
:1010000004F001041CB94FF6FF74A342F6D15468F2
:1010100004F001040CB900206CE08C79012C04D19F
:10102000146844F08004146003E0146824F0800421
:101030001460CC79012C04D1146844F0400414608D
:1010400003E0146824F0400414600C7A012C04D1ED
:10105000146844F02004146003E0146824F02004B1
:1010600014604C7A012C04D1146844F0100414600C
:1010700003E0146824F0100414608C7A012C04D16D
:10108000146844F00804146003E0146824F00804B1
:101090001460CC7A012C04D1146844F00404146068
:1010A00003E0146824F0040414608C78A407CD785D
:1010B00044EA05640D7944EA05444D7944EA05544F
:1010C0000D886D1E2C43D461146824F00104146053
:1010D000002300E05B1C546804F001041CB14FF6CF
:1010E000FF74A342F6D1546804F001040CB100204F
:1010F00000E0012030BD00000EB51348FFF772FE7E
:10110000684600F0C3F800208DF8060001208DF835
:1011100007008DF8080000208DF809008DF80A00FE
:101120008DF80B008DF802008DF8030002208DF879
:10113000040001208DF805000620ADF80000694686
:101140000148FFF74EFF0EBD0064004008B54FF4A4
:10115000C06000F0DFFE14208DF8000000208DF844
:1011600001008DF8020001208DF80300684600F0B0
:1011700099FE08BD10B500F5D87303EB01131B6889
:1011800003F004031372137A53B900F5D87303EB19
:1011900001131B6840F2FF7404EA5353136009E023
:1011A00000F5D87303EB01131B686FF0604404EA89
:1011B000D303536000F5D87303EB01131B6803F0EE
:1011C0000203537200F5D87303EB01135B6803F05D
:1011D0000F03937200F5D87303EB01135B681B0ACE
:1011E000D37400F5D87303EB01139B68D37200F539
:1011F000D87303EB01139B681C0A147300F5D873B2
:1012000003EB01139B681C0C547300F5D87303EBBC
:1012100001139B681B0E937300F5D87303EB011346
:10122000DB68D37300F5D87303EB0113DB681C0A8A
:10123000147400F5D87303EB0113DB681C0C5474B1
:1012400000F5D87303EB0113DB681B0E937421B90F
:10125000C36843F02003C36003E0036943F0200345
:10126000036110BD07480849486004200872002047
:10127000487204208872AB20C872CD2102480173E5
:1012800070470000ADAA5515280200200021817189
:10129000C171017241728172C1728170C17003218A
:1012A00001710221417101210180704710B5024690
:1012B0000020936803F08063B3F1806F00D110E0E9
:1012C000936803F00063B3F1006F01D1012008E0DF
:1012D000936803F08053B3F1805F01D1022000E0F6
:1012E0000420042874D002F5C07303EB00131B68BC
:1012F00003F0010402F5C07303EB00131C600B7ACA
:101300007BB94B7A0C8843EA445302F5C07404EB72
:1013100000142468234302F5C07404EB0014236016
:1013200010E00B7A4C6843EAC4034C7A234302F57D
:10133000C07404EB00142468234302F5C07404EB6A
:10134000001423608B7A03F00F038B7202F5C073D5
:1013500003EB00135B6823F00F0402F5C07303EB8B
:1013600000135C6002F5C07303EB00135B688C7ABA
:10137000234302F5C07404EB001463608B7B1C06EE
:101380004B7B44EA03440B7B44EA0323CC7A23439C
:1013900002F5C07404EB0014A3608B7C1C064B7C2C
:1013A00044EA03440B7C44EA0323CC7B234302F549
:1013B000C07404EB0014E36002F5C07303EB001388
:1013C0001B6843F0010402F5C07303EB00131C60BB
:1013D00010BD000000B585B00121042000F0E2FD41
:1013E0004FF40070ADF8100018208DF813000320A2
:1013F0008DF8120004A9194800F012FC4FF4806027
:10140000ADF8100004208DF8130004A9134800F073
:1014100007FC0121880300F0C5FD4FF41650009031
:101420000020ADF80400ADF80600ADF80800ADF8F6
:101430000C000C20ADF80A006946094801F084FC54
:1014400000F01BFD012240F22551054801F056FC39
:101450000121034801F00FFC05B000BD0008014068
:101460000038014021B1026842F00102026004E04C
:1014700002684FF6FE731A400260704701684FF62B
:10148000FE72114001600021016041608160C16015
:101490004B49884208D14A490839496841F00F014F
:1014A000474A083A51608AE045491431884208D1D8
:1014B00043490839496841F0F001414A083A51600E
:1014C0007DE03F492831884208D13D4908394968C3
:1014D00041F470613A4A083A516070E038493C3151
:1014E000884208D136490839496841F47041344A84
:1014F000083A516063E032495031884208D130499E
:101500000839496841F470212D4A083A516056E083
:101510002B496431884208D129490839496841F486
:101520007001274A083A516049E0254978318842DC
:1015300008D123490839496841F07061204A083AC6
:1015400051603CE01F49884206D1011F096841F003
:101550000F01021F116032E01A491431884208D18C
:101560001849091F096841F0F001164A121F11605D
:1015700025E014492831884208D11249091F096819
:1015800041F470610F4A121F116018E00D493C319F
:10159000884208D10B49091F096841F47041094A82
:1015A000121F11600BE007495031884207D10549ED
:1015B000091F096841F47021024A121F1160704727
:1015C000080002400804024010B50022026847F6F5
:1015D000F0739A430C6A8B6823430C6923434C696C
:1015E00023438C692343CC6923434C6A23438C6A8D
:1015F00023431A430260CB6843600B6883604B68E7
:10160000C36010BD704700000349086000BF024975
:1016100009680029FBD17047240200202DE9F04120
:10162000002400250026002740216C4800F083FBA1
:101630006B4908708021694800F07DFB694908709A
:101640000121694800F077FB684908706448007818
:1016500080006449097800EB410064490978084436
:101660006349087000BF01E0601CC4B26148005DBE
:10167000614909788842F7D1002501E0681CC5B2AC
:101680005C48405D5A4909788842F7D1062C16D249
:10169000DFE804F00306090C0F12012605270EE00F
:1016A000022600270BE00326012708E00426022774
:1016B00005E00526032702E00026042700BF00BF3F
:1016C0004C48805D4A490978884236D14B480078B9
:1016D00068B9012049490870002049490860494912
:1016E000088001214748243800F0D8FF0AE0002094
:1016F00042490870434800884349086040480068F0
:10170000424908604248007828B142480068401CBD
:101710004049086004E03F480068401E3D490860B9
:101720003D4800683B490968884246D101203B4951
:10173000087089203A4948703FE02E48C05D2C4926
:101740000978884236D12D48007868B901202B49A4
:10175000087000202A4908602A4908800121294888
:10176000243800F09BFF0AE0002024490870254837
:1017700000882549086022480068244908602448F8
:10178000007828B123480068401E2249086004E020
:1017900020480068401C1F4908601F4800681D4918
:1017A0000968884209D101201C49087089201C4918
:1017B000487002E001201B4908700D4800780E496E
:1017C00008701948006808B101F012FC012000F00F
:1017D0004BF9012000F042F9BDE8F081000801401A
:1017E0005C0000205D000020000C01405E00002035
:1017F0005F00002024000020600000206100002025
:1018000064000020240400407400002068000020D0
:1018100081000020D0010020480000208900002025
:101820008A000020D4010020340000202DE9F0417E
:1018300000240025002600274021744800F07BFA90
:10184000734908708021714800F075FA7149087079
:101850000121714800F06FFA704908706C480078F7
:1018600080006C49097800EB41006C490978084414
:101870006B49087000BF01E0601CC4B26948005D9C
:10188000694909788842F7D1002501E0681CC5B292
:101890006448405D624909788842F7D1062C16D227
:1018A000DFE804F00306090C0F12012605270EE0FD
:1018B000022600270BE00326012708E00426022762
:1018C00005E00526032702E00026042700BF00BF2D
:1018D0005448805D52490978884236D1534800788F
:1018E00068B90120514908700020514908605149E8
:1018F000088001214F48243800F0D0FE0AE0002083
:101900004A4908704B4800884B49086048480068BD
:101910004A4908604A48007828B14A480068401C93
:101920004849086004E047480068401E454908608F
:101930004548006843490968884246D10120434927
:1019400008708920424948703FE03648C05D3449FC
:101950000978884236D13548007868B90120334982
:10196000087000203249086032490880012131485E
:10197000243800F093FE0AE000202C4908702D481E
:1019800000882D4908602A4800682C4908602C48C6
:10199000007828B12B480068401E2A49086004E0FE
:1019A00028480068401C27490860274800682549E6
:1019B0000968884209D101202449087089202449F6
:1019C000487002E001202349087015480078164944
:1019D00008702148006808B101F00AFB402000F0BF
:1019E00043F838B109480C30006880F020000749FE
:1019F0000C310860802000F037F8802000F02EF8CD
:101A0000402000F02BF8BDE8F08100000008014004
:101A10005C0000205D000020000C01405E00002002
:101A20005F000020240000206000002061000020F2
:101A3000640000202404004074000020680000209E
:101A400081000020D00100204800002089000020F3
:101A50008A000020D40100203400002001490860E1
:101A60007047000014040140014600200022074B8B
:101A70001B6803EA0102054B14331B680B4013B1CA
:101A80000AB1012000E0002070470000000401407E
:101A9000002123498279002A3AD00A461268036855
:101AA0009A430B461A600A1D126803689A430B1D7D
:101AB0001A60027911440A6803681A430A60184AD6
:101AC0000832126803689A43154B08331A601A1DCE
:101AD000126803689A43124B0C331A604279102A39
:101AE0000ED11A1F126803681A430D4B08331A608F
:101AF0001A1D126803681A43094B0C331A600DE073
:101B00000749427911440A6803681A430A6005E0EC
:101B1000027911440A6803689A430A60704700001A
:101B2000000401400EB500F078F901210C2000F00E
:101B300039FA04208DF80B004020ADF8080002A906
:101B4000254800F06DF88020ADF8080002A9224871
:101B500000F066F80120ADF8080002A91F4800F067
:101B60005FF80121084600F01DFA0621002000F070
:101B700037F84020009000208DF8040010208DF8E8
:101B8000050001208DF806006846FFF781FF072158
:101B9000002000F025F88020009000208DF804003F
:101BA00010208DF8050001208DF806006846FFF72B
:101BB0006FFF0021012000F013F8012000900020A9
:101BC0008DF8040010208DF8050001208DF8060026
:101BD0006846FFF75DFF0EBD00080140000C0140A4
:101BE00030B500228B071C0F0F2303FA04F20B4BB6
:101BF0008C1053F824309343084C8D1044F8253052
:101C000023468C1053F824308C07240F00FA04F478
:101C10002343024C8D1044F8253030BD08000140AC
:101C20002DE9F04102460025002600200023002473
:101C3000002791F803C00CF00F0591F803C00CF0D9
:101C4000100CBCF1000F03D091F802C04CEA05055E
:101C500091F800C0BCF1000F31D0146800202BE0D7
:101C60004FF0010C0CFA00F3B1F800C00CEA0306C7
:101C70009E4220D183004FF00F0C0CFA03F7BC43B7
:101C800005FA03FC4CEA040491F803C0BCF1280FE8
:101C900006D14FF0010C0CFA00FCC2F814C00AE0A7
:101CA00091F803C0BCF1480F05D14FF0010C0CFABC
:101CB00000FCC2F810C0401C0828D1D31460B1F851
:101CC00000C0BCF1FF0F34DD546800202EE000F1AD
:101CD000080C4FF0010808FA0CF3B1F800C00CEA48
:101CE00003069E4221D183004FF00F0C0CFA03F73C
:101CF000BC4305FA03FC4CEA040491F803C0BCF1B0
:101D0000280F05D100F1080C08FA0CF8C2F814806D
:101D100091F803C0BCF1480F07D100F1080C4FF057
:101D2000010808FA0CF8C2F81080401C0828CED32D
:101D30005460BDE8F0810246002093680B400BB16F
:101D4000012000E000207047416170470161704749
:101D500000BFFEE72DE9F04F85B004461948006842
:101D6000A0EB04091749086AFEF70DFC0546154863
:101D7000076943693A462846FEF71FFB82468B46B1
:101D80004846FEF700FC07460E488568C3682A46A9
:101D90003846FEF712FB52465B46CDE90001FEF7DE
:101DA00006FBCDE90201FEF720FC04900548006A1D
:101DB000044948620846C0F82090049805B0BDE880
:101DC000F08F00009002002008B50121092000F0EA
:101DD000E9F82020ADF8000003208DF80200102063
:101DE0008DF8030069460948FFF71AFF4FF4807029
:101DF000ADF8000003208DF8020010208DF80300DC
:101E000069460348FFF70CFF08BD0000000C0140C5
:101E10000008014000BFFEE7704708B54FF480603E
:101E200000F078F817208DF8000002208DF80100EE
:101E300001208DF802008DF80300684600F032F8AA
:101E400017208DF8000002208DF8010001208DF888
:101E500002008DF80300684600F024F806208DF893
:101E6000000002208DF8010001208DF802008DF89D
:101E70000300684600F016F808BD08B54FF480600E
:101E800000F048F825208DF8000000208DF80100B2
:101E900001208DF802008DF80300684600F002F87A
:101EA00008BD000070B5002100230F22C47804B3E0
:101EB000154C246804F4E064C4F5E064210AC1F11F
:101EC0000403CA40447804FA03F18478144021439F
:101ED00009010E4C0678A155047804F01F05012471
:101EE000AC4005786D11AD0005F1E025C5F8004165
:101EF00009E0047804F01F050124AC40044D067885
:101F0000761145F8264070BD0CED00E000E400E0DD
:101F100080E100E002490143024A1160704700007D
:101F20000000FA050CED00E07047000001460020BB
:101F3000034A506820F44040084350607047000056
:101F40000010024029B1064A52690243044B5A610B
:101F500004E0034A52698243014B5A617047000012
:101F60000010024029B1064AD2690243044BDA61EB
:101F700004E0034AD2698243014BDA6170470000F2
:101F80000010024029B1064A12690243044B1A614B
:101F900004E0034A12698243014B1A617047000052
:101FA0000010024029B1064A92690243044B9A612B
:101FB00004E0034A92698243014B9A617047000032
:101FC0000010024030B500210022002400232D4DD6
:101FD0006D6805F00C0121B1042905D0082923D131
:101FE00005E0294D056022E0274D05601FE0254DE5
:101FF0006D6805F47012234D6D6805F48034022578
:1020000005EB92421CB9214D554305600BE01D4D77
:102010006D6805F400351DB11C4D5543056002E0A7
:10202000194D5543056002E0174D056000BF00BF24
:10203000144D6D6805F0F0010909154D6B5C0568DC
:10204000DD4045600F4D6D6805F4E061090A104DF3
:102050006B5C4568DD4085600A4D6D6805F4605134
:10206000C90A0B4D6B5C4568DD40C560054D6D6868
:1020700005F44041890B074D6B5CC568B5FBF3F572
:10208000056130BD0010024000127A0000093D00D9
:102090000000002010000020704710B500F002F88A
:1020A00010BD00000CB5002001900090334800687E
:1020B00040F480303149086000BF3048006800F4C7
:1020C000003000900198401C0190009818B90198C8
:1020D000B0F5A06FF1D12948006800F4003010B1CC
:1020E0000120009001E0002000900098012843D1D9
:1020F0002348006840F01000214908600846006845
:1021000020F0030008600846006840F00200086004
:102110001A484068194948600846406848600846BF
:10212000406840F4806048600846406820F47C10B5
:1021300048600846406840F4E81048600846006877
:1021400040F08070086000BF0C48006800F000702C
:102150000028F9D00948406820F00300074948608A
:102160000846406840F00200486000BF03484068ED
:1021700000F00C000828F9D10CBD0000001002404E
:102180000020024030B50146B1F1807F01D301202B
:1021900030BD21F07F40401E4FF0E02250615017CB
:1021A0000F22002807DA13071D0E094B00F00F0459
:1021B000241F1D5503E013071C0E064B1C5400BFC3
:1021C00000204FF0E0229061072010610020DFE73F
:1021D00018ED00E000E400E010B504462046FFF7EB
:1021E000D1FF10BD2DE9F04700249F4800889F498A
:1021F000088001240DE09C4830F814009B490988B0
:10220000884204DD984830F8140098490880601C22
:1022100084B2012CEFDB95480088FEF7C5F907462C
:102220000022934BFEF714FA23D2924800780A2832
:102230000FDA914800688D49098808448E49086082
:102240008C480078401C8B49087000208B4908702E
:102250001DE0894800680A21B0FBF1F08849088038
:10226000002084490870844908600120834908706F
:102270000DE07E480088824908800020814908706E
:102280007D4908607B49087001207C4908707E48C0
:102290000079012854D17D480088401C7B49088082
:1022A000084600880A2852DD7948006840F271210A
:1022B00048437849096801EB00107749B1FBF0F910
:1022C0004846FFF747FD7549086008460068062143
:1022D00090FBF1F071490860084600687049B1F957
:1022E00000100844142803DA14206D49088015E012
:1022F0006A4800686A49B1F900100844B0F57A7F6D
:1023000004DD4FF47A706649088007E0644800886D
:1023100062490988084400B26149088000205B498D
:1023200008805F48B0F9000000EBC00040000A21BF
:1023300090FBF1F05B49086000205349886006E09B
:10234000002052490880554908604A490870002514
:1023500055480079012873D154480088401C5349DE
:10236000088008460088012873DB4549098841F642
:10237000C81201FB02F0C11700EB11510D132E46DC
:102380003046FEF7C7FC4A49086008460068062147
:1023900090FBF1F046490860084600684549B1F9EC
:1023A00000100844142803DA14204249088015E07C
:1023B0003F4800683F49B1F900100844B0F57A7F02
:1023C00004DD4FF47A703B49088007E03948008803
:1023D00037490988084400B236490880002033494B
:1023E00008803448B0F9000000EBC00040000A212A
:1023F00090FBF1F0304908600846006829490968F7
:1024000088420CD9274800882C4908802548008834
:10241000091D088023480088091D08800BE0264814
:1024200000882649088024480088091D0880224821
:102430000088091D088000201B49886009E0FFE72B
:1024400000201A4908801A4908601A490880094979
:1024500008701B48006820B119480068401E1849E0
:102460000860BDE8F087000020020020CC010020B9
:1024700000405740DC0100201002002080000020B6
:1024800014020020D5010020EC010020E40100200E
:10249000680000207400002080841E00D801002005
:1024A000E601002078000020FC010020D601002079
:1024B000E0010020E80100207C000020342C0140D5
:1024C0002402002010B51348006840F001001149B3
:1024D000086008464068104908400E4948600846B0
:1024E00000680E4908400B4908600846006820F45F
:1024F000802008600846406820F4FE0048604FF4E1
:102500001F008860FFF7C9FD4FF0006004490860B4
:1025100010BD0000001002400000FFF8FFFFF6FEB3
:1025200008ED00E010B501210C4800F0F1F898B179
:1025300001210A4800F0AFF809480068142804D2C5
:1025400007480068401C06490860002005490860EB
:10255000034800680449086010BD00000004004002
:102560006400002074000020680000207FB505464C
:102570000C4601210220FFF7F5FCADF80850ADF83C
:1025800004400020ADF80A00ADF8060001A90E488D
:1025900000F010FA012211460B4800F0CAF81D2085
:1025A0008DF8000001208DF8010003208DF8020055
:1025B00001208DF803006846FFF774FC01210248F2
:1025C00000F06CF87FBD00000004004010B5012150
:1025D000064800F09DF840B10121044800F05BF886
:1025E0000020034908700349087010BD000800402E
:1025F00082000020830000207FB505460C460121A3
:102600000420FFF7AFFCADF80850ADF804400020FF
:10261000ADF80A00ADF8060001A90E4800F0CAF9AD
:10262000012211460B4800F084F81E208DF80000AE
:1026300001208DF8010003208DF8020001208DF8A3
:1026400003006846FFF72EFC0121024800F026F83F
:102650007FBD0000000800400A884B881A438B8821
:102660001A43CB881A430B891A434B891A438B8927
:102670001A43A0F84420704730B5002301248C4051
:10268000A3B2048C9C430484048C02FA01F5ADB21D
:102690002C43048430BDCA430282704721B10288B2
:1026A00042F00102028004E002884FF6FE731A40F5
:1026B0000280704731B1B0F8442042F40042A0F8E3
:1026C000442005E0B0F84420C2F30E02A0F84420F4
:1026D00070470A460021018B4FF68F731940114352
:1026E000018370470A460021018B48F6FF731940A9
:1026F0004FF6FF7303EA02231943018370470A462A
:102700000021818B4FF68F731940114381837047ED
:1027100030B50246002000230024158A05EA010393
:10272000958905EA010413B10CB1012000E00020F5
:1027300030BD1AB183890B43838102E083898B43C7
:102740008381704770B5002400220023058C4FF66A
:10275000FE7635400584028C8388048B4FF68F7596
:102760002C40B51E2C400D882C43751E2A400D8927
:102770002A434D882A43144DA8420BD0134DA8423A
:1027800008D0134DA84205D0124DA84202D0124DD8
:10279000A84213D14FF6F7752A404D892A434FF6C8
:1027A000FB752A408D882A434FF6FF652B404FF674
:1027B000FF552B408D892B43CD892B438380048388
:1027C000CD888586028470BD002C01400034014014
:1027D0000040014000440140004801400A460021F9
:1027E000018B4FF6F77319401143018370470000C6
:1027F00070B5002400220023058C4FF6EF7635409B
:102800000584028C8388048B48F6FF752C404FF6B4
:10281000FF452C400D884FF6FF7606EA05252C4330
:102820004FF6DF752A400D8906EA05152A434D88C3
:1028300006EA05152A43154DA84202D0144DA842B8
:102840001DD14FF67F752A404D894FF6FF7606EA77
:1028500005152A434FF6BF752A408D8806EA0515EF
:102860002A434FF6FF352B404FF2FF752B408D89E1
:1028700006EA85052B43CD8906EA85052B4383802F
:102880000483CD880587028470BD0000002C0140C0
:10289000003401400A460021018B4FF2FF731940BA
:1028A0004FF6FF7303EA02231943018370470000C8
:1028B00070B5002400220023058C4FF6FF663540DA
:1028C0000584028C8388848B4FF68F752C404FF6DD
:1028D000FC752C400D882C434FF6FF552A400D897E
:1028E0004FF6FF7606EA05252A434D8806EA0525B8
:1028F0002A43154DA84202D0144DA8421DD14FF2D3
:10290000FF752A404D894FF6FF7606EA05252A43D2
:102910004FF6FF352A408D8806EA05252A434EF6F4
:10292000FF752B404DF6FF752B408D8906EA051586
:102930002B43CD8906EA05152B4383808483CD88FC
:102940008587028470BD0000002C014000340140E6
:102950000A460021818B4FF6F7731940114381839A
:10296000704770B503460020002418461830012532
:102970008D40ACB21D8CA5431D8409B1082909D135
:1029800000EB6100056825F07005056005681543DA
:1029900005600EE00D1FC5F34E052844056825F4BB
:1029A000E045056005684FF6FF7606EA02263543E6
:1029B000056070BD002202881D4B98420ED01D4B51
:1029C00098420BD0B0F1804F08D01B4B984205D0F5
:1029D0001A4B984202D01A4B984204D14FF68F738B
:1029E0001A404B881A43174B984207D0164B98420F
:1029F00004D04FF6FF431A40CB881A4302808B88DD
:102A000083850B8803850A4B98420BD0094B98426B
:102A100008D00E4B984205D00D4B984202D00D4B7A
:102A2000984201D10B7A038601238382704700000C
:102A3000002C014000340140000400400008004028
:102A4000000C004000100040001400400040014015
:102A5000004401400048014010B540210F48FFF7F5
:102A60004EFE4FF400400E490860602200210B48E2
:102A7000FFF777FF012200210848FFF7FDFD4FF423
:102A800000400749086050210448FFF72BFE4FF42F
:102A900000400349091D086010BD0000002C0140E2
:102AA000100C014010B540210F48FFF71BFE4FF4FA
:102AB00000400E490860602200210B48FFF751FFDB
:102AC000012200210848FFF7D7FD4FF400400749D5
:102AD000086050210448FFF712FE4FF400400349FC
:102AE000091D086010BD0000002C0140100C0140C1
:102AF00010B5002440F225514F4800F0D5F80028C9
:102B000077D040F225514C4800F0A6F800204B4900
:102B10000880494800F084F949490870494800781C
:102B2000402866DA4848007888B908460078AA281C
:102B300007D1012044490870414800784349087092
:102B400057E00020404908703E49087051E03E4877
:102B50000078012814D13A480078BB280AD1022015
:102B6000394908703648007838494870012035499D
:102B700008703EE00020344908703249087038E09F
:102B80003148007802282FD12E48007840282BDACF
:102B90002C480078401C2B490870294800782B49A4
:102BA000284A12788854274800783F2821D10020ED
:102BB0002549087023490870244890F83E00CC2825
:102BC00017D1224890F83F00DD2812D1012020497A
:102BD0000870002405E01D48005D1E490855601C72
:102BE000C4B2402CF7DB04E00020174908701549F7
:102BF000087040F22771104800F056F850B140F2CA
:102C000027710D4800F028F8002240F227710A4889
:102C100000F074F840F22661074800F045F850B122
:102C200040F22661044800F017F8002240F22661C5
:102C3000014800F063F810BD00380140240800404E
:102C40001D020020CA0100201C0200208A00002072
:102C50001E0200200A01002010B50022002340F6C9
:102C60006A14A14200D100BF0A1201249440A3B209
:102C7000DC43048010BD21B1828942F4005282817C
:102C800004E082894DF6FF731A4082817047024644
:102C90000020B1F5007F00D100BF13880B400BB1BD
:102CA000012000E00020704770B502460024002398
:102CB0000025002040F66A16B14200D100BFC1F3E2
:102CC000421501F01F03012606FA03F3012D02D17C
:102CD0009689334006E0022D02D1168A334001E086
:102CE000968A33400C12012606FA04F41688344002
:102CF00013B10CB1012000E0002070BDF0B5034617
:102D0000002400260025002040F66A17B94200D1B1
:102D100000BF1846C1F3421401F01F06012707FA4D
:102D200006F5012C01D10C3004E0022C01D1103049
:102D300000E014301AB107682F43076002E007680B
:102D4000AF430760F0BD00002DE9F04786B00546AF
:102D50000E460024A24600BFA1460027B08900B15C
:102D600000BF2F462C8A4CF6FF700440F0880443C5
:102D70002C82AC894EF6F3100440B08831890843A8
:102D8000718908430443AC81AC8A4FF6FF4004408C
:102D9000B0890443AC8201A8FFF714F91F488742A9
:102DA00002D1DDF810A001E0DDF80CA0A88900F444
:102DB000004040B10AEBCA0000EB0A10316849003C
:102DC000B0FBF1F807E00AEBCA0000EB0A1031682B
:102DD0008900B0FBF1F86420B8FBF0F00401200991
:102DE000642101FB1089A88900F4004040B1322021
:102DF00000EBC900B0FBF1F000F00700044308E06D
:102E0000322000EB09106421B0FBF1F000F00F005C
:102E100004432C8106B0BDE8F08700000038014073
:102E200001468888C0F308007047C1F30802828019
:102E30007047000010B50D4A00210D48FEF79AF9C1
:102E40000A4840680B49096888420BD10748007A54
:102E5000042807D10548807A082803D101200649B3
:102E6000086002E000200449086010BD3C02002018
:102E700000640040180000202000002000BFFEE792
:102E800070B504460D4629462046FFF7CEFF00BF29
:102E900080212046FFF7FBFE0028F9D070BD00001E
:102EA00010B540210F48FFF72AFC4FF400400E49AF
:102EB0000860602204210B48FFF753FD0122042122
:102EC0000848FFF7D9FB4FF400400749086050213C
:102ED0000448FFF7FEFB4FF400400349091D08605A
:102EE00010BD0000002C0140100C014010B5402125
:102EF0000F48FFF7EEFB4FF400400E4908606022D8
:102F000004210B48FFF72DFD012204210848FFF79B
:102F1000B3FB4FF400400749086050210448FFF715
:102F2000EEFB4FF400400349091D086010BD00008E
:102F3000002C0140100C014010B540210F48FFF754
:102F4000D1FB4FF400400E490860602208210B4875
:102F5000FFF707FD012208210848FFF78DFB4FF41A
:102F600000400749086050210448FFF7B2FB4FF4C6
:102F700000400349091D086010BD0000002C0140FD
:102F8000100C014010B540210F48FFF7A2FB4FF491
:102F900000400E490860602208210B48FFF7E1FC61
:102FA000012208210848FFF767FB4FF4004007495A
:102FB000086050210448FFF795FB4FF40040034997
:102FC000091D086010BD0000002C0140100C0140DC
:102FD00002E008C8121F08C1002AFAD170477047E2
:102FE000002001E001C1121F002AFBD17047000040
:102FF00010B538480078A8B33748007837490978C1
:10300000884202D1FFF7BEFF62E03348407833497F
:103010000978884202D1FFF78FFF59E02E48807867
:103020002E490978884202D1FFF73AFF50E02A483A
:10303000C0782A490978884202D1FFF757FF47E054
:103040002548007925490978884202D1FFF72AFDF1
:103050003EE02148407921490978884238D1FFF77C
:10306000FBFC35E0FFE71C48C0781C490978884222
:1030700002D1FFF787FF2BE017480079174909783D
:10308000884202D1FFF758FF22E0134840791349E4
:103090000978884202D1FFF703FF19E00E48007853
:1030A0000E490978884202D1FFF720FF10E00A4854
:1030B00040780A490978884202D1FFF7F3FC07E01B
:1030C0000548807805490978884201D1FFF7C4FC9A
:1030D00010BD000030000020240000205F00002010
:1030E00008B501210820FEF75DFF14208DF80300CC
:1030F00003208DF802004020ADF8000069460B481F
:10310000FEF78EFD8020ADF8000069460748FEF707
:1031100087FD2020ADF8000069460448FEF780FDD9
:1031200020210248FEF710FE08BD0000000C0140FF
:10313000ADF5087D4FF0000A4FF4807148A8FDF707
:103140001AF8F8210AA8FDF716F8A04903C9CDE935
:103150000801FDF761FDFEF737FEFEF73BF9FEF7CC
:10316000E1FCFDF725FEFDF72AFE9948FFF734F84C
:1031700040219848FFF7B6FAFFF7B2FFFDF728FEA7
:10318000FEF770F8FDF77CFC20219348FEF7DCFD8C
:103190004FF480719148FEF7D9FD91490888FDF7F9
:1031A000EDF981464FF08B41FDF722F88046FDF79F
:1031B0003BFA06464FF066328A4BFDF7FEF80446AE
:1031C000FDF75EFA884908604FF47A70FEF71CFA42
:1031D0006420804934310880091D0880091D088059
:1031E000FEF712FAF0E08148007870B300207F49C2
:1031F00008707F4880787F49C8727D48C1787D48D3
:1032000001737B4801797B4841737948417979485A
:103210008173774890F83D00FD2804D1C11C6F48A8
:10322000FEF794FD0DE0724890F83D00FE2808D1AD
:1032300020216948FEF788FD4FF480716748FEF74A
:1032400083FD6C496C48FEF731F86C4800786428BF
:1032500034DA6A480078401C684908706049088878
:10326000FDF78CF94FF08A410190FCF7C1FF8346CE
:10327000FDF7DAF980464FF066325A4BFDF79DF8BC
:103280005F4A604BCDE90201FDF791F85E4A5F4B62
:10329000CDE90401FDF703F906460F465C480068D6
:1032A000FDF7C2F932463B46CDE90601FCF7DEFFE9
:1032B0000446FDF7E5F9564908601AE055495448B7
:1032C0000068FCF795FF52490860084600685249BB
:1032D000086000204E490860484908704F494E4830
:1032E0000068FDF7E9F904D24FF480713B48FEF71E
:1032F0002BFD0120FEF788F949480068D0B1002075
:10330000474908604748C07A0F2813DA4548C07A11
:1033100001280FDB4348417CC07A401E424A02F834
:1033200010104048817CC07A401E012202EB400010
:103330003D4A11543D480068B0F5FA7F05D23B483C
:103340000068401C394908602BE0002037490860BC
:10335000012037490870002036490870AA203649F4
:103360000870BB204870CC208870DD20C8704FF0FA
:10337000000A09E02C4810F80A102F4A0AF102004E
:103380001154401E00F0FF0ABAF1180FF2DB2B496E
:1033900021480068FCF7FAFE0446FDF712F92649B9
:1033A00088762348007878B12248007840280BDAE4
:1033B0002148204A1278815C2148FFF761FD1D48B1
:1033C0000078401C1B4908700DE7000044340008D9
:1033D00040190100002C0140000C01400008014090
:1033E0002002002066660A404C0000201E020020D9
:1033F0000A0100202802002000640040560000203E
:10340000931804560EAD04407B14AE47E17A943F06
:103410001C0000200000C842580000200000BE42EE
:10342000200000203C02002050020020500000201C
:1034300054000020550000204A0100200000A04058
:103440000038014001020304090807006C34000839
:1034500000000020280200007C080008C03400089A
:1034600028020020D0040000E02F0008412D0102B6
:103470000304044009060708090204060805140DA0
:10348000AA5515025901067B48454C4C4F093E8010
:1034900013AABB1201120212031204120512061221
:1034A0000712081209120A120B02240C035CCCDD6D
:1034B0001A640221E3E803031A8813F209000000EA
:0400000508000131BD
:00000001FF
